:1000000018C000C73BC0ABC039C038C03CCC36C0FC
:1000100035C034C033C098C373C367C32FC02EC06C
:100020002DC02CC02BC0F80370047B05DD05C50670
:10003000600C11241FBECFE5D4E0DEBFCDBF10E0C1
:10004000A0E6B0E0EEE3FBE102C005900D92A2391C
:10005000B107D9F721E0A2E9B0E001C01D92A038B4
:10006000B207E1F710E0C9E1D0E003C02197FE013B
:1000700061DCC331D107D1F7A3D55FCDC1CF80916A
:10008000920090919300009771F0DC01ED91FC914A
:100090000190F081E02D0995E0919200F09193009C
:1000A0008281938104C080919400909195009093F7
:1000B00093008093920008952BE630E0FC01318399
:1000C0002083209194003091950033832283909374
:1000D0009500809394000895FC011582118210828E
:1000E00080919A0090919B00892B39F483E085BD23
:1000F00085EE83BD89B7806889BF80919A00909111
:100100009B0097838683F0939B00E0939A00089569
:10011000FC016483E1CFFC0189B78F7789BF7183CC
:1001200060836115710511F010926400158273836C
:10013000628389B7806889BF0895CF93FC01C58128
:10014000CC2351F015828481811105C0CF016281D9
:100150007381E1DF01C0C82F8C2FCF9108951F92CA
:100160000F920FB60F9211242F934F935F936F93BB
:100170007F938F939F93AF93BF93EF93FF93809160
:10018000960090919700A0919800B0919900AC01D1
:10019000BD015E5C6F4F7F4F409396005093970078
:1001A000609398007093990041385E436105710532
:1001B00074F09B54A109B109809396009093970025
:1001C000A0939800B093990083B58A5102C083B57B
:1001D0008B5183BD81E080936500E0919A00F0919E
:1001E0009B0021E0309781F080819181009741F060
:1001F00010926500019791838083892B09F42583F0
:100200000680F781E02DEECF809165008093640039
:10021000FF91EF91BF91AF919F918F917F916F91DE
:100220005F914F912F910F900FBE0F901F901895D7
:100230008627082E8295807F8025092E982F82950B
:100240008F700826869598278927880F880F880F32
:1002500080250895CF93DF93EC012EDF81E790E0B6
:100260009983888361E0CE010A9652DF88ED8AB9CE
:1002700086E880BD10BC8FE289B91092C60080E08C
:1002800090E0E3DB9D838C831E821F82A5DB1986B1
:100290008AA991E0980F9AABFE01E80FF11D8BE15E
:1002A000828B8AA991E0980F9AABFE01E80FF11DAD
:1002B00082E0828B19AADF91CF910895CF92DF92CD
:1002C000FF920F931F93CF93DF938C016901C62F89
:1002D000D72FF42EF60EFC1611F188818B3149F4DC
:1002E000F80182A991E0980F92AB9881E80FF11D77
:1002F000928BF80182A991E0980F92AB9881E80F58
:10030000F11D928BC114D10441F06881F601808106
:1003100091818EDFF601918380832196DCCFDF917E
:10032000CF911F910F91FF90DF90CF900895CF93C1
:10033000C42F50E088EA90E067DB1092A700C093DA
:10034000A600969A559ACF9108958091C600811182
:1003500004C08AB185FB882780F90895CF93DF9385
:10036000EC01F3DF9E01265F3F4F811103C08985B9
:10037000811103C060E070E002C066E970E0C9016D
:10038000DF91CF91C8CEFC0120A9211103C025E047
:100390002187E4CF21E0FC01218764E170E00A9627
:1003A000BACECF92DF92EF92FF920F931F93CF932B
:1003B000DF93CDB7DEB728970FB6F894DEBF0FBE38
:1003C000CDBFFC018185882319F0222309F445C0A3
:1003D0008FEF9FEF98878F831A821982848195818E
:1003E0009C838B838681211102C08F5F86838D83DE
:1003F000C22ED42E7B018F012E8382E082AB9E0120
:10040000295F3F4F46E0BE016F5F7F4FCF0156DF50
:100410009E01295F3F4F4D2DB701C8014FDF20E0FE
:1004200030E042E0BE01695F7F4FC80147DFF8015D
:1004300082A991E0980F92ABE80FF11D8BE1828BBE
:10044000F80182A991E0980F92ABE80FF11D83E0CB
:10045000828BF801C0AAC80196DF28960FB6F894DF
:10046000DEBF0FBECDBFDF91CF911F910F91FF90E7
:10047000EF90DF90CF900895FF920F931F93CF934B
:10048000DF93CDB7DEB761970FB6F894DEBF0FBE2E
:10049000CDBF8C015ADF90919D00981771F0809329
:1004A0009D00F80180A9811103C0C80157DF05C074
:1004B00064E170E0C8010A962EDEF8018185882388
:1004C00081F0C8010A9639DE882359F0F80142A963
:1004D000B8016E5E7F4FC8012ADFF8018185815027
:1004E00081878EE990E029DE81111092C60080910B
:1004F000C700882309F4C8C01092C7008091C800C3
:10050000833008F4C1C0F12C8FEF9FEF2091C80019
:10051000F21640F4EF2DF0E0E753FF4F608188DEE4
:10052000F394F4CF892B09F0AFC08091C8008250BA
:100530008093C8002091C9003091CA00F8018481DD
:1005400095812817390709F09FC08091CE00882334
:1005500019F0118611AA03C081E0F801818780910A
:10056000CD00F8019781891709F488C087838091AD
:10057000C800863009F488C08091CF00803109F42A
:1005800041C058F4833071F1843009F07DC060912E
:10059000D00083E090E067DA3BC0803409F43FC0CC
:1005A000883409F45BC0803309F06EC081E389832D
:1005B0006091D0006A838091D1008B8370E0782BAA
:1005C000AE01455F5F4F83E691E0DAD787E0FE0139
:1005D0003B96DE01149601900D928A95E1F721E099
:1005E0004AE038C080912601882391F06091D100C3
:1005F00070E0762F66278091D000682B80E090E035
:100600003FDA06C06091D00070E088E391E084D3C7
:1006100021E040E060E070E0C801C3DE35C087E063
:10062000E2EDF0E0DE011B9601900D928A95E1F774
:100630004091D10050E0542F44278091D000482BA6
:10064000BE01655F7F4F83E691E0F2D789831A820E
:1006500021E042E0BE016F5F7F4FDECF87E0E0ED3B
:10066000F0E0DE011B9601900D928A95E1F7BE0144
:10067000655F7F4F83E691E0B9D8CACFF8018185E5
:10068000882311F0C8017FDE61960FB6F894DEBFB3
:100690000FBECDBFDF91CF911F910F91FF900895B5
:1006A000CF93DF93CDB7DEB729970FB6F894DEBFAF
:1006B0000FBECDBF20E2298327E0FB01DE011296A9
:1006C00001900D922A95E1F7498720E049E0BE01AB
:1006D0006F5F7F4F66DE29960FB6F894DEBF0FBEC0
:1006E000CDBFDF91CF91089508951F920F920FB65D
:1006F0000F92112496980F900FBE0F901F9018958F
:100700001F920F920FB60F9211248F939F93EF9326
:10071000FF93E091A70081E08E0F8093A700F0E0A7
:10072000E855FF4F80818CB99091A7008091A60079
:10073000981301C05598FF91EF919F918F910F9061
:100740000FBE0F901F9018951F920F920FB60F9229
:1007500011242F933F934F935F936F937F938F93C6
:100760009F93AF93BF93CF93EF93FF93CCB165E08B
:1007700070E08EE990E0CFDC81E08093C60090913C
:100780009C00992371F010929C00C33039F0CB315A
:1007900069F0C230A9F41092C80012C08093C7005B
:1007A0000FC0CB3119F480939C000AC0E091C800BF
:1007B00081E08E0F8093C800F0E0E753FF4FC083C5
:1007C0008091C8008E3110F01092C800FF91EF9117
:1007D000CF91BF91AF919F918F917F916F915F91D9
:1007E0004F913F912F910F900FBE0F901F90189532
:1007F00087EE90E02FDD61E08EE990E089CC0F93E9
:100800001F93CF93DF93EC0196B394708D858E0187
:100810000C5F1F4F9817E9F09D87911103C060EDA1
:1008200077E015C081E08C8760E087EE90E05CDFC8
:1008300082E090E002D9882321F08F3F31F461E01B
:1008400001C062E08AE291E0AFD160E177E2C801E5
:1008500062DCC80172DC882329F18C85882311F0C1
:100860001C8618C065E08AE291E09ED18091280143
:10087000882321F089E291E016D10CC000E110E05C
:10088000A8956FEFC801EFD80F5F1F4F0F3F81E0B2
:100890001807B1F760E08AE291E086D1B29BFECF03
:1008A00084E08D87DF91CF911F910F910895CF93B1
:1008B000DF93EC0101DC87E790E09983888361E0B6
:1008C000CE01049625DCC29A84E08D871C86DF91D8
:1008D000CF910895FC01148660E070E004961BCC73
:1008E0008AE191E0E4CF089584E986BF06B604FC6E
:1008F000FDCF0895FF920F931F93CF93DF9300D006
:10090000CDB7DEB704EA80EAF82E14E806BF06B6D3
:1009100007FEFDCFF3B816BF06B607FEFDCF81B1C7
:10092000887F883131F069837A83DEDF69817A815B
:10093000EDCF73B984E886BF06B607FEFDCF63B975
:1009400084E886BF06B607FEFDCF81E00F900F90CA
:10095000DF91CF911F910F91FF900895CF93DF9377
:1009600000D0CDB7DEB724EA26BF1A8219822981CA
:100970003A812035334C38F429813A812F5F3F4F3B
:100980003A832983F4CF06B607FC02C016BE09C01D
:1009900016BE60E070E0AEDF882319F0A5DF81E0CD
:1009A00001C080E00F900F90DF91CF9108950F93D9
:1009B0001F93CF93DF938B01E901BA019BDF84EA98
:1009C00086BF06B607FEFDCF81EA83B984E886BFFD
:1009D00006B607FEFDCFF80184E894EC219758F0A5
:1009E000209711F096BF01C086BF06B607FEFDCF67
:1009F00023B12193F3CFDF91CF911F910F9174CF4A
:100A00005F926F927F928F929F92AF92BF92CF929E
:100A1000DF92EF92FF920F931F93CF93DF935C01CE
:100A2000EB018A0179014A0195E0969487949A95A1
:100A3000E1F7BA01C5015EDFEC0EFD1E0C1B1D0BBC
:100A400024E8522E6801CC0EDD1ECE15DF05D9F04C
:100A5000360185E0769467948A95E1F786149704C9
:100A600058F442DF8FEF97E40197F1F700C00000E0
:100A7000B601C5013FDF4301899183B956BE06B671
:100A800007FEFDCFDFCFDF91CF911F910F91FF9038
:100A9000EF90DF90CF90BF90AF909F908F907F901E
:100AA0006F905F9021CFEF92FF920F931F93CF93A0
:100AB000DF938C01C0E0D0E0FF24FA9484E8E82EB4
:100AC000BE01C80117DF20E230E0F3B8E6BE06B68B
:100AD00007FEFDCF21503109C1F7A09605DFA8958B
:100AE000C11580E2D80761F7DF91CF911F910F9177
:100AF000FF90EF90089585E080B908950F931F93BC
:100B0000CF93DF93EC018C010C5F1F4FC80115DB05
:100B1000882359F168EC70E0C801FDDA9C859230B9
:100B2000B1F050F49923F1F09130F9F48D859827C4
:100B30009D8764EF71E011C09330B1F09430A9F457
:100B4000AA9A68EE73E0C801E6DA1C860EC09D859D
:100B500081E089278D8764E670E0C801DCDA8D8545
:100B6000811102C0AA9801C0AA9ADF91CF911F916A
:100B70000F9108950F931F93CF93DF93EC019CDAAD
:100B80008DE790E0998388838E010C5F1F4F61E0B1
:100B9000C801BEDA68EC70E0C801BDDA1C86DF91DE
:100BA000CF911F910F910895FC016487653009F47E
:100BB000AA9A62E070E00496AECA8AE291E0DACFC7
:100BC000CF93DF93CDB7DEB76A970FB6F894DEBF49
:100BD0000FBECDBF9DE088E10FB6F894A89581BD0A
:100BE0000FBE91BDCE010196D3D0A19A8E9AA29A42
:100BF000C39A789483E691E0EFD4CE010196D9D0E0
:100C0000A8953DDABE016B5E7F4FCE010196D9D02B
:100C10008C8B8F3FA9F3BE016C5E7F4F83E691E022
:100C20009AD4EECF0F931F93CF93DF931F92CDB73C
:100C3000DEB784E090E0698300D7082F017010E0F0
:100C4000698170E00617170711F0A99801C0A99AE9
:100C50000F90DF91CF911F910F910895CF93DF9364
:100C6000EC012ADA83E890E09983888361E0CE0181
:100C700004964EDA60E0CE01D5DF1E861F86DF9136
:100C8000CF9108950F931F93CF93DF93FC01278596
:100C900021113DC0EC0183E090E0CFD6182F84E015
:100CA00090E0CBD6082F1F3F29F488EE93E09D8774
:100CB0008C8706C0F4E61F9F900111243D872C8786
:100CC00063E08AE291E070DF6C857D8561157105D6
:100CD00069F495B382E0892785BB68EE73E0CE01A5
:100CE0000496DF91CF911F910F9115CA8E858823AD
:100CF00011F001FD0CC081E08E87CE0104960BDA65
:100D000061E0CE01DF91CF911F910F918BCFDF91E9
:100D1000CF911F910F9108950F931F93CF93DF935E
:100D2000EC018B0163E08AE291E03EDF01151105E1
:100D300061F0B801CE010496EED981E08F8781E0A1
:100D400090E09D878C8761E001C060E0CE01DF917B
:100D5000CF911F910F9166CFCF93DF93EC01049653
:100D6000ECD9882379F01E861F868C859D85892B7A
:100D700019F060E0CE0156DF60E08AE291E0DF9199
:100D8000CF9112CFDF91CF91089588E391E066CFA4
:100D9000CF93DF93EC0190D989E890E09983888321
:100DA00061E0CE010496B4D98FEF8A8BDF91CF91A9
:100DB00008958D9A85B7816085BF8BB780648BBF9E
:100DC0000895CF93DF93EC018A89813059F0823006
:100DD00099F486E0FE013C96DB0101900D928A9524
:100DE000E1F70AC085E0FE013C96DB0101900D921F
:100DF0008A95E1F7FB0115828A899FEF9A8BDF9133
:100E0000CF9108951F920F920FB60F9211242F9336
:100E10003F938F939F93EF93FF9394B580914E01EF
:100E2000292F281B822F90934E01293548F090914D
:100E300066009130A9F098E590934D0191E00AC0C9
:100E40002C3270F490916600923051F09CE29093B5
:100E50004D0192E09093660010924C0110924B016C
:100E600090914D01981718F410924A010AC0909180
:100E70004A01911102C081E002C083E0892780937A
:100E80004A0190914A01913009F487C080914B0149
:100E90008F5F80934B0120916600213021F022303A
:100EA00009F442C07AC02091480130914901220FD3
:100EB000331F3093490120934801829905C0216076
:100EC000309349012093480190914C019923C9F036
:100ED000982F977051F4E82FE695E695E695F0E0A7
:100EE00090914801EF5AFE4F9083803409F055C02D
:100EF00010924C018BB78F7B8BBF81E080935101A7
:100F00004CC0809148019091490193708F3F91406E
:100F100009F043C081E080934C0189E080934B014C
:100F20008FEF8093520139C02091480130914901DF
:100F300036952795911101C030683093490120936F
:100F4000480190914C019923C1F0982F977051F46A
:100F5000E82FE695E695E695F0E090914901EF5A85
:100F6000FE4F90838038C9F410924C018BB78F7B71
:100F70008BBF81E08093500110C080914801909117
:100F80004901807E8115904841F481E080934C01B5
:100F90008BE080934B0110925201FF91EF919F9152
:100FA0008F913F912F910F900FBE0F901F9018952A
:100FB000CF93DF93DC0186EF9FEF40E060E050E0ED
:100FC000E82FE095E695E695E695F0E0EE5AFE4FBF
:100FD000208130E0FC01E770FF2702C0359527959E
:100FE000EA95E2F7217033272627622F5F5F55309D
:100FF00011F4422B50E00197843C2FEF920701F748
:101000006FE370E05AEC560FC0E0852F90E0681750
:101010007907BCF0E52FE695E695E695F0E0EE5A07
:10102000FE4F208130E0809590958770992702C00F
:10103000359527958A95E2F721703327C2275B5FA4
:10104000E4CF4C2B6F5F7F4F63347105D9F64111AC
:1010500050C01C961C921C971D961C921D971E96A4
:101060001C921E971F961C921F9750961C92509789
:1010700081E090E029E0C1E0D0E03FEF380FE22FBF
:10108000E695E695E695F0E0EE5AFE4F408150E099
:10109000622F70E0609570956770772702C0559554
:1010A00047956A95E2F740FF16C036953695369516
:1010B000FD01E30FF11D44275527481B590B4770CD
:1010C0005527BE0102C0660F771F4A95E2F7AB01B4
:1010D0003485432B4487AC0143705527452B11F0D1
:1010E0002F5F01C02E5F01968932910531F681E0B4
:1010F00001C080E0DF91CF9108952F923F924F92EF
:101100005F926F927F928F929F92AF92BF92CF9297
:10111000DF92EF92FF920F931F93CF93DF9300D054
:1011200000D01F92CDB7DEB79B838A8320915301F5
:101130008091540130E2839FC001112426952695A9
:101140002695822B6C01DD24AD2DAA0FAA0B2091D0
:101150005401A0905501B0905501E0915601E983EA
:1011600020905601E0905701F090570110915801DE
:10117000F0915801FD8390905901E0915A01EC8360
:10118000B0915C01207F30E040E050E060E070E032
:1011900080E090E004E097D3322E432E542E652E4B
:1011A000762E872EF82FE92F2A2D2F7030E040E081
:1011B00050E060E070E080E090E00CE084D3322A00
:1011C000432A542A652A762A872AF82BE92B292DC7
:1011D00030E040E050E060E070E080E090E008E265
:1011E00072D3322A432A542A652A762A872AF82B70
:1011F000E92B2B2D207E30E040E050E060E070E0F5
:1012000080E090E00BE05FD3322A432A542A652A1B
:10121000762A872ABF2EB82AAE2EA92A29812F71B5
:1012200030E040E050E060E070E080E090E003E11A
:101230004AD3322A432A542A652A762A872AFB2D42
:10124000F82BEA2DE92B222D207C30E040E050E005
:1012500060E070E080E090E002E135D3322A432A7A
:10126000542A652A762A872AF82BE92B2E2D2F73EC
:1012700030E040E050E060E070E080E090E00AE1C3
:1012800022D3322A432A542A652A762A872AF82B1F
:10129000E92B2F2D207830E040E050E060E070E056
:1012A00080E090E009E10FD3322A432A542A652ACC
:1012B000762A872AF82BFE2EF92A212F2F7130E06B
:1012C00040E050E060E070E080E090E001E2FBD2BE
:1012D000322A432A542A652A762A872AEF2FE82BB6
:1012E000F92A2D81207630E040E050E060E070E0A7
:1012F00080E090E0E8D2322A942C932AB52CB42ACC
:10130000652A762AF82DF72BE82BF92A2C812270F2
:1013100030E040E050E060E070E080E090E00FE21C
:10132000D2D2A32CA22A932AB42A162D152B762AC0
:10133000F72BE82BF92A2B2F227030E040E050E009
:1013400060E070E080E090E00EE3BDD2A22A932A34
:10135000B42A512B6729F72B8E2B9F29AC289D2867
:10136000BA2A152F1A2BB62FBA2B7F2E7A2A882E3F
:101370008A2AA92B80915C0140915D01F0E24F9F88
:10138000A0011124869586958695482B90915D0144
:1013900080915E01292F207F90E1299F90011124E7
:1013A00090E0982F88279295907F822B932BFC01B9
:1013B000E42BE12CF12CC12CD12C2A2D392D4B2DD5
:1013C000512F6B2F772D882D9A2F0E2D97D2C60176
:1013D0008227082E8295807F8025092E982F82955E
:1013E0008F700826869598278927880F880F880F81
:1013F00080256C0198E0E90EF11C30E4E316F1045D
:10140000E1F6CE16DF06E9F4EA80FB808CE0E80E18
:10141000F11CC12CD12C2A2D392D4B2D512F6B2F86
:10142000772D882D9A2F0C2D69D2F70121937F01FA
:10143000F8E0CF0ED11C30E3C316D10461F781E090
:1014400001C080E00F900F900F900F900F90DF91F0
:10145000CF911F910F91FF90EF90DF90CF90BF90B1
:10146000AF909F908F907F906F905F904F903F9044
:101470002F9008950F931F93CF93DF93EC018091EA
:1014800051018E010C5F1F4F882391F0CE0190DD3A
:10149000882361F068EC70E0C8013DD680914F016F
:1014A000811104C081E080934F018A8B1092510119
:1014B00080915001882399F0CE011FDE882369F0C6
:1014C00068EC70E0C80127D680914F01811105C0FA
:1014D00081E080934F0182E08A8B109250018BB79C
:1014E00080648BBFC80129D6811110924F01DF9112
:1014F000CF911F910F910895CF93DF93EC01DCD52D
:101500008FE890E09983888361E0CE01409600D611
:101510001C821C8E89E291E021DA809328018823C5
:1015200019F082E994E002C086E490E09B8F8A8FF4
:10153000DF91CF910895CF93DF93EC011C8268E88F
:1015400073E14096E8D581E08C8F62E08AE291E019
:10155000DF91CF9129CBCF93DF93EC018C81811167
:101560000CC01D861C86DE01159687E0FB010190EC
:101570000D928A95E1F781E08C83DF91CF910895F8
:10158000CF93DF93EA01FC01828D938D6817790771
:10159000C8F487E0869FA001879F500D1124809199
:1015A0002801882339F027E030E0BE0189E291E08C
:1015B000FED90AC0BA01605F7F4F47E050E0CE011C
:1015C0002CD202C08FEF888381E098819F3F09F47D
:1015D00080E0DF91CF9108950F931F93CF93DF9316
:1015E000CDB7DEB727970FB6F894DEBF0FBECDBFDD
:1015F0008C01FC01118E108EF801608D718DAE0191
:101600004F5F5F4FC801BCDF882339F0F801808D40
:10161000918D0196918F808FEFCF27960FB6F8941A
:10162000DEBF0FBECDBFDF91CF911F910F91089507
:10163000CF93DF93FB01EA01DC015A968D919C91D7
:101640005B9748175907C8F487E08C9FA0018D9FCE
:10165000500D112480912801882331F027E030E0DB
:1016600089E291E0CDD907C0BA01605F7F4F47E0C2
:1016700050E0CF01EFD1CE0102C08FEF9FEFDF919D
:10168000CF910895EF92FF920F931F93CF93DF9323
:10169000CDB7DEB728970FB6F894DEBF0FBECDBF2B
:1016A0008C01FC018481882309F484C0813009F015
:1016B00090C064857585AE014F5F5F4FC80160DFE4
:1016C00098012B5F3F4F7901882339F147E050E0C3
:1016D000B901CE0101968BD1F80124853585892B7E
:1016E000B1F4232B41F482E090E0A7D18F3F19F4AD
:1016F000C80121DF6EC0F801148288E391E0C2DAEC
:10170000F801148E8AE191E0E5D841E04EC02F5FE8
:101710003F4FF801358724875CC0F801148260E0F0
:101720008AE291E041DA82E090E087D1F8014485D5
:1017300055854115510539F48130E9F09091260124
:1017400091110CC009C081110BC080912601882322
:1017500091F0B701C8016CDF21E00EC08823C9F306
:101760008F3FC1F480912601882381F140E050E051
:10177000B701C8015DDF20E0F801148E8AE191E035
:101780002887A8D82885222351F088E391E07ADAC7
:1017900041E00AC0F801148E8AE191E09BD864E030
:1017A0008AE291E001DA40E04170B70187EE90E013
:1017B00077D70FC0C8014096C0D4882351F0F801F4
:1017C000148E60E08AE291E0EFD903C0F801848DC5
:1017D000BECF28960FB6F894DEBF0FBECDBFDF9107
:1017E000CF911F910F91FF90EF900895CF92DF92CC
:1017F000EF92FF920F931F93CF93DF93CDB7DEB796
:1018000027970FB6F894DEBF0FBECDBF7C016B01EA
:1018100000E010E0F701828D938D0817190748F456
:10182000A895AE014F5F5F4FB801C701A9DE8111D6
:1018300008C0F701828D938D01970817190748F4A6
:101840000EC047E050E0B601CE010196D0D0892B02
:1018500019F48FEF9FEF08C00F5F1F4FDBCFA80178
:10186000B601C701E5DEC80127960FB6F894DEBFC2
:101870000FBECDBFDF91CF911F910F91FF90EF90E1
:10188000DF90CF9008951F920F920FB60F92112400
:101890008F939F9380916201815019F08093620130
:1018A00002C0109262018AB59BB580589F489BBDCB
:1018B0008ABD9F918F910F900FBE0F901F9018952A
:1018C00083E691E019CE0F93083090F0982F872F80
:1018D000762F652F542F432F322F22270850F4CF15
:1018E000220F331F441F551F661F771F881F991F24
:1018F0000A95B2F70F91089597FB10F81694000817
:101900000F93083098F00850232F342F452F562F6F
:10191000672F782F892F902DF4CF05949795879571
:101920007795679557954795379527950A95AAF71F
:101930000F910895EE0FFF1F0590F491E02D09948B
:101940008F929F92AF92BF92CF92DF92EF92FF92CF
:10195000CF93DF93EC01688179818A819B81611546
:1019600071058105910521F464E279ED8BE597E03D
:101970002DE133EF41E050E086D049015A019B014F
:10198000AC01A7EAB1E49BD06B017C01ACEEB4EFF3
:10199000A5019401A0D0DC01CB018C0D9D1DAE1DD5
:1019A000BF1DB7FF03C00197A109B0488883998381
:1019B000AA83BB839F77DF91CF91FF90EF90DF9059
:1019C000CF90BF90AF909F908F900895B9DF08950A
:1019D00080E690E0B5DF0895A0E0B0E0809360007D
:1019E00090936100A0936200B09363000895FB019F
:1019F000DC0104C08D910190801921F441505040C8
:101A0000C8F7881B990B0895FB01DC0102C0019007
:101A10000D9241505040D8F70895DC01CB01FC01F4
:101A2000E199FECF06C0FFBBEEBBE09A31960DB246
:101A30000D9241505040B8F70895E199FECF9FBBF9
:101A40008EBBE09A99278DB30895A8E1B0E042E0FB
:101A500050E0E5CFDC01CB0102C02D9105D0415013
:101A60005040D8F70895262FE199FECF9FBB8EBB3B
:101A70002DBB0FB6F894E29AE19A0FBE0196089535
:101A8000F2DF272FF1CF052E97FB16F400940FD02D
:101A900057FD05D024D007FC02D046F408C050956D
:101AA0004095309521953F4F4F4F5F4F089590954A
:101AB0008095709561957F4F8F4F9F4F089531D0DE
:101AC000A59F900DB49F900DA49F800D911D112492
:101AD0000895B7FFF4CFF3DF821B930B0895A1E2C3
:101AE0001A2EAA1BBB1BFD010DC0AA1FBB1FEE1F98
:101AF000FF1FA217B307E407F50720F0A21BB30BE3
:101B0000E40BF50B661F771F881F991F1A9469F75E
:101B100060957095809590959B01AC01BD01CF01BA
:101B20000895A29FB001B39FC001A39F01D0B29FAF
:0E1B3000700D811D1124911D0895F894FFCFB2
:101B3E00010000000101010000000073040000001C
:101B4E00003C0200000000FF03000000007E0500C4
:101B5E00000000AC06000000003A0A00000000423F
:021B6E000B006A
:00000001FF
